{
  "_format": "hh-sol-artifact-1",
  "contractName": "NFTMarketplace",
  "sourceName": "contracts/NFTMarketplace.sol",
  "abi": [
    {
      "anonymous": false,
      "inputs": [
        {
          "indexed": true,
          "internalType": "address",
          "name": "from",
          "type": "address"
        },
        {
          "indexed": false,
          "internalType": "string",
          "name": "name",
          "type": "string"
        },
        {
          "indexed": false,
          "internalType": "string",
          "name": "message",
          "type": "string"
        },
        {
          "indexed": false,
          "internalType": "uint256",
          "name": "timestamp",
          "type": "uint256"
        },
        {
          "indexed": false,
          "internalType": "uint256",
          "name": "amount",
          "type": "uint256"
        }
      ],
      "name": "Donation",
      "type": "event"
    },
    {
      "inputs": [
        {
          "internalType": "string",
          "name": "name",
          "type": "string"
        },
        {
          "internalType": "string",
          "name": "message",
          "type": "string"
        }
      ],
      "name": "buyChai",
      "outputs": [],
      "stateMutability": "payable",
      "type": "function"
    }
  ],
  "bytecode": "0x60806040526658d15e1762800060015534801561001b57600080fd5b506103938061002b6000396000f3fe60806040526004361061001e5760003560e01c80636a13d85914610023575b600080fd5b61003d600480360381019061003891906101f1565b61003f565b005b3373ffffffffffffffffffffffffffffffffffffffff167fdd10e0ac7ff4472e4e130e66c1b79a146ea2f69e23abeb3c96097d9066eaa2048383423460405161008b949392919061030a565b60405180910390a25050565b6000604051905090565b600080fd5b600080fd5b600080fd5b600080fd5b6000601f19601f8301169050919050565b7f4e487b7100000000000000000000000000000000000000000000000000000000600052604160045260246000fd5b6100fe826100b5565b810181811067ffffffffffffffff8211171561011d5761011c6100c6565b5b80604052505050565b6000610130610097565b905061013c82826100f5565b919050565b600067ffffffffffffffff82111561015c5761015b6100c6565b5b610165826100b5565b9050602081019050919050565b82818337600083830152505050565b600061019461018f84610141565b610126565b9050828152602081018484840111156101b0576101af6100b0565b5b6101bb848285610172565b509392505050565b600082601f8301126101d8576101d76100ab565b5b81356101e8848260208601610181565b91505092915050565b60008060408385031215610208576102076100a1565b5b600083013567ffffffffffffffff811115610226576102256100a6565b5b610232858286016101c3565b925050602083013567ffffffffffffffff811115610253576102526100a6565b5b61025f858286016101c3565b9150509250929050565b600081519050919050565b600082825260208201905092915050565b60005b838110156102a3578082015181840152602081019050610288565b838111156102b2576000848401525b50505050565b60006102c382610269565b6102cd8185610274565b93506102dd818560208601610285565b6102e6816100b5565b840191505092915050565b6000819050919050565b610304816102f1565b82525050565b6000608082019050818103600083015261032481876102b8565b9050818103602083015261033881866102b8565b905061034760408301856102fb565b61035460608301846102fb565b9594505050505056fea264697066735822122056939fa25b4361f6129b2dec8de193bacecd9fdbd31af7458cc7207077b93e9f64736f6c634300080a0033",
  "linkReferences": {},
  "deployedLinkReferences": {}
}