{"contracts/NFTMarketplace.sol":{"NFTMarketplace":{"abi":[{"anonymous":false,"inputs":[{"indexed":true,"internalType":"address","name":"from","type":"address"},{"indexed":false,"internalType":"string","name":"name","type":"string"},{"indexed":false,"internalType":"string","name":"message","type":"string"},{"indexed":false,"internalType":"uint256","name":"timestamp","type":"uint256"},{"indexed":false,"internalType":"uint256","name":"amount","type":"uint256"}],"name":"Donation","type":"event"},{"inputs":[{"internalType":"string","name":"name","type":"string"},{"internalType":"string","name":"message","type":"string"}],"name":"buyChai","outputs":[],"stateMutability":"payable","type":"function"}],"evm":{"bytecode":{"linkReferences":{},"object":"60806040526658d15e1762800060015534801561001b57600080fd5b506103938061002b6000396000f3fe60806040526004361061001e5760003560e01c80636a13d85914610023575b600080fd5b61003d600480360381019061003891906101f1565b61003f565b005b3373ffffffffffffffffffffffffffffffffffffffff167fdd10e0ac7ff4472e4e130e66c1b79a146ea2f69e23abeb3c96097d9066eaa2048383423460405161008b949392919061030a565b60405180910390a25050565b6000604051905090565b600080fd5b600080fd5b600080fd5b600080fd5b6000601f19601f8301169050919050565b7f4e487b7100000000000000000000000000000000000000000000000000000000600052604160045260246000fd5b6100fe826100b5565b810181811067ffffffffffffffff8211171561011d5761011c6100c6565b5b80604052505050565b6000610130610097565b905061013c82826100f5565b919050565b600067ffffffffffffffff82111561015c5761015b6100c6565b5b610165826100b5565b9050602081019050919050565b82818337600083830152505050565b600061019461018f84610141565b610126565b9050828152602081018484840111156101b0576101af6100b0565b5b6101bb848285610172565b509392505050565b600082601f8301126101d8576101d76100ab565b5b81356101e8848260208601610181565b91505092915050565b60008060408385031215610208576102076100a1565b5b600083013567ffffffffffffffff811115610226576102256100a6565b5b610232858286016101c3565b925050602083013567ffffffffffffffff811115610253576102526100a6565b5b61025f858286016101c3565b9150509250929050565b600081519050919050565b600082825260208201905092915050565b60005b838110156102a3578082015181840152602081019050610288565b838111156102b2576000848401525b50505050565b60006102c382610269565b6102cd8185610274565b93506102dd818560208601610285565b6102e6816100b5565b840191505092915050565b6000819050919050565b610304816102f1565b82525050565b6000608082019050818103600083015261032481876102b8565b9050818103602083015261033881866102b8565b905061034760408301856102fb565b61035460608301846102fb565b9594505050505056fea264697066735822122056939fa25b4361f6129b2dec8de193bacecd9fdbd31af7458cc7207077b93e9f64736f6c634300080a0033","opcodes":"PUSH1 0x80 PUSH1 0x40 MSTORE PUSH7 0x58D15E17628000 PUSH1 0x1 SSTORE CALLVALUE DUP1 ISZERO PUSH2 0x1B JUMPI PUSH1 0x0 DUP1 REVERT JUMPDEST POP PUSH2 0x393 DUP1 PUSH2 0x2B PUSH1 0x0 CODECOPY PUSH1 0x0 RETURN INVALID PUSH1 0x80 PUSH1 0x40 MSTORE PUSH1 0x4 CALLDATASIZE LT PUSH2 0x1E JUMPI PUSH1 0x0 CALLDATALOAD PUSH1 0xE0 SHR DUP1 PUSH4 0x6A13D859 EQ PUSH2 0x23 JUMPI JUMPDEST PUSH1 0x0 DUP1 REVERT JUMPDEST PUSH2 0x3D PUSH1 0x4 DUP1 CALLDATASIZE SUB DUP2 ADD SWAP1 PUSH2 0x38 SWAP2 SWAP1 PUSH2 0x1F1 JUMP JUMPDEST PUSH2 0x3F JUMP JUMPDEST STOP JUMPDEST CALLER PUSH20 0xFFFFFFFFFFFFFFFFFFFFFFFFFFFFFFFFFFFFFFFF AND PUSH32 0xDD10E0AC7FF4472E4E130E66C1B79A146EA2F69E23ABEB3C96097D9066EAA204 DUP4 DUP4 TIMESTAMP CALLVALUE PUSH1 0x40 MLOAD PUSH2 0x8B SWAP5 SWAP4 SWAP3 SWAP2 SWAP1 PUSH2 0x30A JUMP JUMPDEST PUSH1 0x40 MLOAD DUP1 SWAP2 SUB SWAP1 LOG2 POP POP JUMP JUMPDEST PUSH1 0x0 PUSH1 0x40 MLOAD SWAP1 POP SWAP1 JUMP JUMPDEST PUSH1 0x0 DUP1 REVERT JUMPDEST PUSH1 0x0 DUP1 REVERT JUMPDEST PUSH1 0x0 DUP1 REVERT JUMPDEST PUSH1 0x0 DUP1 REVERT JUMPDEST PUSH1 0x0 PUSH1 0x1F NOT PUSH1 0x1F DUP4 ADD AND SWAP1 POP SWAP2 SWAP1 POP JUMP JUMPDEST PUSH32 0x4E487B7100000000000000000000000000000000000000000000000000000000 PUSH1 0x0 MSTORE PUSH1 0x41 PUSH1 0x4 MSTORE PUSH1 0x24 PUSH1 0x0 REVERT JUMPDEST PUSH2 0xFE DUP3 PUSH2 0xB5 JUMP JUMPDEST DUP2 ADD DUP2 DUP2 LT PUSH8 0xFFFFFFFFFFFFFFFF DUP3 GT OR ISZERO PUSH2 0x11D JUMPI PUSH2 0x11C PUSH2 0xC6 JUMP JUMPDEST JUMPDEST DUP1 PUSH1 0x40 MSTORE POP POP POP JUMP JUMPDEST PUSH1 0x0 PUSH2 0x130 PUSH2 0x97 JUMP JUMPDEST SWAP1 POP PUSH2 0x13C DUP3 DUP3 PUSH2 0xF5 JUMP JUMPDEST SWAP2 SWAP1 POP JUMP JUMPDEST PUSH1 0x0 PUSH8 0xFFFFFFFFFFFFFFFF DUP3 GT ISZERO PUSH2 0x15C JUMPI PUSH2 0x15B PUSH2 0xC6 JUMP JUMPDEST JUMPDEST PUSH2 0x165 DUP3 PUSH2 0xB5 JUMP JUMPDEST SWAP1 POP PUSH1 0x20 DUP2 ADD SWAP1 POP SWAP2 SWAP1 POP JUMP JUMPDEST DUP3 DUP2 DUP4 CALLDATACOPY PUSH1 0x0 DUP4 DUP4 ADD MSTORE POP POP POP JUMP JUMPDEST PUSH1 0x0 PUSH2 0x194 PUSH2 0x18F DUP5 PUSH2 0x141 JUMP JUMPDEST PUSH2 0x126 JUMP JUMPDEST SWAP1 POP DUP3 DUP2 MSTORE PUSH1 0x20 DUP2 ADD DUP5 DUP5 DUP5 ADD GT ISZERO PUSH2 0x1B0 JUMPI PUSH2 0x1AF PUSH2 0xB0 JUMP JUMPDEST JUMPDEST PUSH2 0x1BB DUP5 DUP3 DUP6 PUSH2 0x172 JUMP JUMPDEST POP SWAP4 SWAP3 POP POP POP JUMP JUMPDEST PUSH1 0x0 DUP3 PUSH1 0x1F DUP4 ADD SLT PUSH2 0x1D8 JUMPI PUSH2 0x1D7 PUSH2 0xAB JUMP JUMPDEST JUMPDEST DUP2 CALLDATALOAD PUSH2 0x1E8 DUP5 DUP3 PUSH1 0x20 DUP7 ADD PUSH2 0x181 JUMP JUMPDEST SWAP2 POP POP SWAP3 SWAP2 POP POP JUMP JUMPDEST PUSH1 0x0 DUP1 PUSH1 0x40 DUP4 DUP6 SUB SLT ISZERO PUSH2 0x208 JUMPI PUSH2 0x207 PUSH2 0xA1 JUMP JUMPDEST JUMPDEST PUSH1 0x0 DUP4 ADD CALLDATALOAD PUSH8 0xFFFFFFFFFFFFFFFF DUP2 GT ISZERO PUSH2 0x226 JUMPI PUSH2 0x225 PUSH2 0xA6 JUMP JUMPDEST JUMPDEST PUSH2 0x232 DUP6 DUP3 DUP7 ADD PUSH2 0x1C3 JUMP JUMPDEST SWAP3 POP POP PUSH1 0x20 DUP4 ADD CALLDATALOAD PUSH8 0xFFFFFFFFFFFFFFFF DUP2 GT ISZERO PUSH2 0x253 JUMPI PUSH2 0x252 PUSH2 0xA6 JUMP JUMPDEST JUMPDEST PUSH2 0x25F DUP6 DUP3 DUP7 ADD PUSH2 0x1C3 JUMP JUMPDEST SWAP2 POP POP SWAP3 POP SWAP3 SWAP1 POP JUMP JUMPDEST PUSH1 0x0 DUP2 MLOAD SWAP1 POP SWAP2 SWAP1 POP JUMP JUMPDEST PUSH1 0x0 DUP3 DUP3 MSTORE PUSH1 0x20 DUP3 ADD SWAP1 POP SWAP3 SWAP2 POP POP JUMP JUMPDEST PUSH1 0x0 JUMPDEST DUP4 DUP2 LT ISZERO PUSH2 0x2A3 JUMPI DUP1 DUP3 ADD MLOAD DUP2 DUP5 ADD MSTORE PUSH1 0x20 DUP2 ADD SWAP1 POP PUSH2 0x288 JUMP JUMPDEST DUP4 DUP2 GT ISZERO PUSH2 0x2B2 JUMPI PUSH1 0x0 DUP5 DUP5 ADD MSTORE JUMPDEST POP POP POP POP JUMP JUMPDEST PUSH1 0x0 PUSH2 0x2C3 DUP3 PUSH2 0x269 JUMP JUMPDEST PUSH2 0x2CD DUP2 DUP6 PUSH2 0x274 JUMP JUMPDEST SWAP4 POP PUSH2 0x2DD DUP2 DUP6 PUSH1 0x20 DUP7 ADD PUSH2 0x285 JUMP JUMPDEST PUSH2 0x2E6 DUP2 PUSH2 0xB5 JUMP JUMPDEST DUP5 ADD SWAP2 POP POP SWAP3 SWAP2 POP POP JUMP JUMPDEST PUSH1 0x0 DUP2 SWAP1 POP SWAP2 SWAP1 POP JUMP JUMPDEST PUSH2 0x304 DUP2 PUSH2 0x2F1 JUMP JUMPDEST DUP3 MSTORE POP POP JUMP JUMPDEST PUSH1 0x0 PUSH1 0x80 DUP3 ADD SWAP1 POP DUP2 DUP2 SUB PUSH1 0x0 DUP4 ADD MSTORE PUSH2 0x324 DUP2 DUP8 PUSH2 0x2B8 JUMP JUMPDEST SWAP1 POP DUP2 DUP2 SUB PUSH1 0x20 DUP4 ADD MSTORE PUSH2 0x338 DUP2 DUP7 PUSH2 0x2B8 JUMP JUMPDEST SWAP1 POP PUSH2 0x347 PUSH1 0x40 DUP4 ADD DUP6 PUSH2 0x2FB JUMP JUMPDEST PUSH2 0x354 PUSH1 0x60 DUP4 ADD DUP5 PUSH2 0x2FB JUMP JUMPDEST SWAP6 SWAP5 POP POP POP POP POP JUMP INVALID LOG2 PUSH5 0x6970667358 0x22 SLT KECCAK256 JUMP SWAP4 SWAP16 LOG2 JUMPDEST NUMBER PUSH2 0xF612 SWAP12 0x2D 0xEC DUP14 0xE1 SWAP4 0xBA 0xCE 0xCD SWAP16 0xDB 0xD3 BYTE 0xF7 GASLIMIT DUP13 0xC7 KECCAK256 PUSH17 0x77B93E9F64736F6C634300080A00330000 "},"methodIdentifiers":{"buyChai(string,string)":"6a13d859"}}}}}